:020000040000FA
:100C0000D2EF1FF00000000095EF22F00F0EC16E32
:060C1000070EB46E120095
:080C1800D0EF22F0D9CFE5FF77
:100C2000E1CFD9FF00C0E5FF01C0E5FF02C0E5FF4D
:100C300003C0E5FF04C0E5FF05C0E5FF06C0E5FF12
:100C400007C0E5FF08C0E5FF09C0E5FF0AC0E5FFF2
:100C50000BC0E5FF0CC0E5FF0DC0E5FF0EC0E5FFD2
:100C60000FC0E5FF10C0E5FF11C0E5FF12C0E5FFB2
:100C700013C0E5FF14C0E5FF15C0E5FF16C0E5FF92
:100C800017C0E5FF18C0E5FF19C0E5FF1AC0E5FF72
:100C9000020EDBCF00F0030EDBCF01F0040EDBCF42
:100CA00002F0050EDBCF03F0060EDBCF04F0070EDB
:100CB000DBCF05F0080EDBCF06F0090EDBCF07F027
:100CC0000A0EDBCF08F0096A020E0A6E03C0E9FFC4
:100CD00004C0F3FF055054EC25F00B6E0B5002E1FD
:100CE00027EF0BF00C6A0D6A0B50250A02E10D503C
:100CF00002E00EEF0BF00B6A0D6A032A02E3044ACE
:100D0000052A03C0E9FF04C0F3FF055054EC25F0A9
:100D10000E6E0E50D8B427EF0BF00F6A0E50250A56
:100D200004E10F5002E10EEF0BF00E502D0A02E12C
:100D30000F5001E006D0032A02E3044A052A010EFF
:100D40000B6E03C00EF004C00FF005C010F00EC013
:100D5000E9FF0FC0F3FF105054EC25F0126A300A7F
:100D600002E1125001E006D00E2A02E30F4A102AD7
:100D70000B82EDD70EC0E9FF0FC0F3FF105054EC0B
:100D800025F0116E11C012F0136A1350800F800FFE
:100D900002E1300E125C17E31350800F800F02E166
:100DA0003A0E125C10E20D500A0DF3CF0DF0D00E8A
:100DB00011260D50126E115012240D6E0E2A02E3F0
:100DC0000F4A102AD7D70EC003F00FC004F010C08E
:100DD00005F00EC0E9FF0FC0F3FF105054EC25F0F2
:100DE000126A2E0A02E1125001E03FD00E50010FAC
:100DF000036E000E0F20046E000E1020056E0A6AAE
:100E000003C00EF004C00FF005C010F00EC0E9FFE3
:100E10000FC0F3FF105054EC25F0116E11C012F00A
:100E2000136A1350800F800F02E1300E125C17E33B
:100E30001350800F800F02E13A0E125C10E20A504C
:100E40000A0DF3CF0AF0D00E11260A50126E11507F
:100E500012240A6E0E2A02E30F4A102AD7D70EC0B8
:100E600003F00FC004F010C005F003C0E9FF04C098
:100E7000F3FF055054EC25F00E6E0F6A660A02E18E
:100E80000F5001E040D00650040F106E000E0720F6
:100E9000116E000E0820126E10C006F011C007F08F
:100EA00012C008F0FC0E1026FF0E1122122210C0F4
:100EB000E9FF11C0F3FF12500EEC24F0106EF3CFD7
:100EC00011F0F4CF12F0E9CF13F00A50E56EE56AA5
:100ED0000B50E56E0D50E56E1350E56E1250E56E49
:100EE0001150E56E1050E56E0250E56E0150E56E52
:100EF0000050E56E79EC0BF0106E0B0EE1261050F1
:100F0000092621EF0BF00E50730A02E10F5001E0A9
:100F100052D00650030F106E000E0720116E000E07
:100F20000820126E10C006F011C007F012C008F0C1
:100F3000FD0E1026FF0E1122122210C0E9FF11C073
:100F4000F3FF125049EC24F0106EF3CF11F0F4CF00
:100F500012F010C013F011C014F012C015F01110EF
:100F6000121007E013C010F014C011F015C012F0F9
:100F700006D0000E126E380E116E000E106E0B5061
:100F8000E56E0D50E56E1250E56E1150E56E105095
:100F9000E56E0250E56E0150E56E0050E56E15EC11
:100FA00014F0106E080EE1260950116E1050112435
:100FB000096E21EF0BF00E506C0A02E10F5001E0B8
:100FC00006D0032A02E3044A052A010E0C6E03C070
:100FD000E9FF04C0F3FF055054EC25F00E6E0F6AD4
:100FE000750A02E10F5001E06CD00C5023E006506E
:100FF000040F106E000E0720116E000E0820126EF6
:1010000010C006F011C007F012C008F0FC0E102648
:10101000FF0E1122122210C0E9FF11C0F3FF12507F
:101020000EEC24F0106EF3CF11F0F4CF12F0E9CFF4
:1010300013F024D00650020F146E000E0720156E18
:10104000000E0820166E14C006F015C007F016C07A
:1010500008F0FE0E1426FF0E1522162214C0E9FF1A
:1010600015C0F3FF1650F3EC24F0146EF3CF15F017
:1010700014C010F015C011F0126A136A610EE56E0B
:10108000E56A0B50E56E0D50E56EE56A0A0EE56EF9
:101090000C50E56E1350E56E1250E56E1150E56E82
:1010A0001050E56E0250E56E0150E56E0050E56EA1
:1010B00059EC0EF0146E0E0EE1261450092621EFA5
:1010C0000BF00E50640A02E10F5006E00E50690A60
:1010D00002E10F5001E075D00C5023E00650040FE0
:1010E000146E000E0720156E000E0820166E14C038
:1010F00006F015C007F016C008F0FC0E1426FF0E0F
:101100001522162214C0E9FF15C0F3FF16500EEC8D
:1011100024F0146EF3CF15F0F4CF16F0E9CF17F0EA
:1011200024D00650020F186E000E0720196E000E14
:1011300008201A6E18C006F019C007F01AC008F08F
:10114000FE0E1826FF0E19221A2218C0E9FF19C038
:10115000F3FF1A50F3EC24F0186EF3CF19F018C017
:1011600014F019C015F0166A176A14C010F015C0F3
:1011700011F016C012F017C013F0610EE56EE56AAB
:101180000B50E56E0D50E56E010EE56E0A0EE56E34
:101190000C50E56E1350E56E1250E56E1150E56E81
:1011A0001050E56E0250E56E0150E56E0050E56EA0
:1011B00059EC0EF0146E0E0EE1261450092621EFA4
:1011C0000BF00E50780A02E10F5006E00E50700A44
:1011D00002E10F5001E073D00C5023E00650040FE1
:1011E000146E000E0720156E000E0820166E14C037
:1011F00006F015C007F016C008F0FC0E1426FF0E0E
:101200001522162214C0E9FF15C0F3FF16500EEC8C
:1012100024F0146EF3CF15F0F4CF16F0E9CF17F0E9
:1012200024D00650020F186E000E0720196E000E13
:1012300008201A6E18C006F019C007F01AC008F08E
:10124000FE0E1826FF0E19221A2218C0E9FF19C037
:10125000F3FF1A50F3EC24F0186EF3CF19F018C016
:1012600014F019C015F0166A176A14C010F015C0F2
:1012700011F016C012F017C013F0610EE56EE56AAA
:101280000B50E56E0D50E56EE56A100EE56E0C50E4
:10129000E56E1350E56E1250E56E1150E56E10507C
:1012A000E56E0250E56E0150E56E0050E56E59ECBA
:1012B0000EF0146E0E0EE12614500926C2D10E5007
:1012C000580A02E10F5006E00E50500A02E10F509A
:1012D00001E073D00C5023E00650040F146E000E92
:1012E0000720156E000E0820166E14C006F015C0FB
:1012F00007F016C008F0FC0E1426FF0E1522162269
:1013000014C0E9FF15C0F3FF16500EEC24F0146E64
:10131000F3CF15F0F4CF16F0E9CF17F024D0065034
:10132000020F186E000E0720196E000E08201A6EAC
:1013300018C006F019C007F01AC008F0FE0E1826F3
:10134000FF0E19221A2218C0E9FF19C0F3FF1A5024
:10135000F3EC24F0186EF3CF19F018C014F019C094
:1013600015F0166A176A14C010F015C011F016C0F7
:1013700012F017C013F0410EE56EE56A0B50E56EF2
:101380000D50E56EE56A100EE56E0C50E56E1350DB
:10139000E56E1250E56E1150E56E1050E56E02508C
:1013A000E56E0150E56E0050E56E59EC0EF0146EDE
:1013B0000E0EE1261450092644D10E50620A02E1B5
:1013C0000F5001E073D00C5023E00650040F146E50
:1013D000000E0720156E000E0820166E14C006F0D1
:1013E00015C007F016C008F0FC0E1426FF0E1522DB
:1013F000162214C0E9FF15C0F3FF16500EEC24F0BE
:10140000146EF3CF15F0F4CF16F0E9CF17F024D017
:101410000650020F186E000E0720196E000E0820ED
:101420001A6E18C006F019C007F01AC008F0FE0EB8
:101430001826FF0E19221A2218C0E9FF19C0F3FF5F
:101440001A50F3EC24F0186EF3CF19F018C014F012
:1014500019C015F0166A176A14C010F015C011F003
:1014600016C012F017C013F0610EE56EE56A0B505E
:10147000E56E0D50E56EE56A020EE56E0C50E56E08
:101480001350E56E1250E56E1150E56E1050E56E8A
:101490000250E56E0150E56E0050E56E59EC0EF01D
:1014A000146E0E0EE12614500926CBD00E506F0A92
:1014B00002E10F5001E073D00C5023E00650040FFE
:1014C000146E000E0720156E000E0820166E14C054
:1014D00006F015C007F016C008F0FC0E1426FF0E2B
:1014E0001522162214C0E9FF15C0F3FF16500EECAA
:1014F00024F0146EF3CF15F0F4CF16F0E9CF17F007
:1015000024D00650020F186E000E0720196E000E30
:1015100008201A6E18C006F019C007F01AC008F0AB
:10152000FE0E1826FF0E19221A2218C0E9FF19C054
:10153000F3FF1A50F3EC24F0186EF3CF19F018C033
:1015400014F019C015F0166A176A14C010F015C00F
:1015500011F016C012F017C013F0610EE56EE56AC7
:101560000B50E56E0D50E56EE56A080EE56E0C5009
:10157000E56E1350E56E1250E56E1150E56E105099
:10158000E56E0250E56E0150E56E0050E56E59ECD7
:101590000EF00C6E0E0EE1260C50092652D00E50A5
:1015A000630A02E10F5001E04CD00650020F0C6EAE
:1015B000000E07200E6E000E08200F6E0CC006F005
:1015C0000EC007F00FC008F0FE0E0C26FF0E0E2214
:1015D0000F220CC0E9FF0EC0F3FF0F50F3EC24F014
:1015E0000201456F466B0B50E56E0D50E56E800EA7
:1015F000E56E020EE56E450EE56E0250E56E015099
:10160000E56E0050E56E15EC14F00B6E080EE12649
:1016100009500C6E0B500C24096E13D003C0E9FF67
:1016200004C0F3FF055054EC25F0E56E0250E56E62
:101630000150E56E0050E56E37EC1CF0040EE1261B
:10164000092A032A02E3044A052A66EF06F000503D
:101650000110021014E000C0E9FF01C0F3FF0250C6
:1016600049EC24F0006EF3CF01F0F4CF02F0E56A0C
:1016700000C0E9FF01C0F3FF0250D9EC25F009508A
:10168000E4CF1AF0E4CF19F0E4CF18F0E4CF17F06C
:10169000E4CF16F0E4CF15F0E4CF14F0E4CF13F06C
:1016A000E4CF12F0E4CF11F0E4CF10F0E4CF0FF06C
:1016B000E4CF0EF0E4CF0DF0E4CF0CF0E4CF0BF06C
:1016C000E4CF0AF0E4CF09F0E4CF08F0E4CF07F06C
:1016D000E4CF06F0E4CF05F0E4CF04F0E4CF03F06C
:1016E000E4CF02F0E4CF01F0E4CF00F0E4CFD9FF83
:1016F0001200D9CFE5FFE1CFD9FF00C0E5FF01C05F
:10170000E5FF02C0E5FF03C0E5FF04C0E5FF05C03B
:10171000E5FF06C0E5FF07C0E5FF08C0E5FF09C01B
:10172000E5FF0AC0E5FF0BC0E5FF0CC0E5FF0DC0FB
:10173000E5FF0EC0E5FF0FC0E5FF10C0E5FF11C0DB
:10174000E5FF12C0E5FF13C0E5FF14C0E5FF15C0BB
:10175000E5FF16C0E5FF17C0E5FF18C0E5FF19C09B
:10176000E5FF1AC0E5FF1BC0E5FF1CC0E5FF1DC07B
:10177000E5FF1EC0E5FF1FC0E5FF20C0E5FF020E2C
:10178000DBCF00F0030EDBCF01F0040EDBCF02F065
:10179000050EDBCF03F0060EDBCF04F0070EDBCF28
:1017A00005F0080EDBCF06F0090EDBCF07F00A0EBE
:1017B000DBCF08F00C0EDBCF09F00A6A0B6A0C6A6B
:1017C0000D6A0E6A0F6A106A116A020E136E0C0E11
:1017D000126E800E146E020E166E180E156E800EAE
:1017E000176E186A0B0E196E03500201306F045009
:1017F000316F0550326F0650336FD88033AFD890B9
:1018000023E3075012E008A210D02D0EE56E02501F
:10181000E56E0150E56E0050E56E37EC1CF0040EED
:10182000E126010E186E07060FD02D0EE56E12C0D0
:10183000E9FF13C0F3FF1450D9EC25F0122A02E39C
:10184000134A142A0A0E196E020132353335036E1B
:10185000046A810E03263051046E3151056E7F0EED
:101860003215066E1A6A068E0350800F610F21E34F
:101870002B0E02010C6F690E0D6F6E0E0E6F660E51
:101880000F6F106B0850E56E0750E56E800EE56E29
:10189000020EE56E0C0EE56E0250E56E0150E56E2F
:1018A0000050E56E15EC14F01B6E080EE1261B507F
:1018B000BBD10350800F970F09E20A6A0B6A0C6ACA
:1018C0000D6A0E6A0F6A106A116A9DD00350800F6C
:1018D000690F25E303C01BF01C6A03BE1C68E90EF8
:1018E0001B26D8A01C0604C00AF005C00BF006C0D9
:1018F0000CF01AC00DF01B5011E009E6E86CD8900E
:101900000A360B360C360D36010FFAE37CD0D89030
:101910000D320C320B320A32010FFAE374D0D88048
:1019200003AED890D8B04AD003C01BF01C6A03BEE7
:101930001C681B5017081D6E000E1C5404C00AF0D2
:1019400005C00BF006C00CF01AC00DF01D5011E0E0
:1019500009E6E86CD8900D320C320B320A32010FD6
:10196000FAE307D0D8900A360B360C360D36010F45
:10197000FAE31B4A1C2A04C01DF005C01EF006C075
:101980001FF01AC020F01B5011E009E6E86CD89057
:101990001D361E361F362036010FFAE307D0D890C9
:1019A00020321F321E321D32010FFAE31D500E6E1F
:1019B0001E500F6E1F50106E116A25D01A6A1B6AD6
:1019C00003BE1B68034A1B2A1B1E036CD8B41B2AC8
:1019D00004C00EF005C00FF006C010F01AC011F0E0
:1019E000035011E009E6E86CD890113210320F3242
:1019F0000E32010FFAE307D0D8900E360F361036AC
:101A00001136010FFAE30A500B100C100D100FE104
:101A1000300EE56E12C0E9FF13C0F3FF1450D9EC8D
:101A200025F0122A02E3134A142A190678D015C0A9
:101A300003F016C004F017C005F0066A19C015F0CF
:101A40000A500B100C100D10D8B43CD0E56AE56AB2
:101A5000E56A0A0EE56E0D50E56E0C50E56E0B5012
:101A6000E56E0A50E56E37EC17F0166E080EE126AB
:101A7000300E162616C0E5FF03C0E9FF04C0F3FFD1
:101A80000550D9EC25F0032A02E3044A052AE56A49
:101A9000E56AE56A0A0EE56E0D50E56E0C50E56EDE
:101AA0000B50E56E0A50E56E0AEC19F00A6EF3CFA2
:101AB0000BF0F4CF0CF0E9CF0DF0080EE126062A6A
:101AC0001506BED715C019F012C00AF013C00BF0EE
:101AD00014C00CF006C00DF006060D501AE0FF0E03
:101AE00003260422052203C0E9FF04C0F3FF0550CA
:101AF00054EC25F00D6E0DC0E5FF0AC0E9FF0BC0E8
:101B0000F3FF0C50D9EC25F00A2AE4E30B4A0C2A27
:101B1000E1D70AC012F00BC013F00CC014F0070E8E
:101B2000095C02E3060E096E0950195CD8A019C0C1
:101B300009F0010E095CD8A057D02E0EE56E12C038
:101B4000E9FF13C0F3FF1450D9EC25F0122A02E389
:101B5000134A142A12C003F013C004F014C005F095
:101B6000066A0950065C3AE20E500E240A6E0F34E3
:101B70000B6E10340C6E11340D6E0A500A260B36A3
:101B80000C360D360A500A260B360C360D360E5022
:101B90000E24156E0F34166E1034176E1134196E34
:101BA00015500A240E6E16500B200F6E17500C2085
:101BB000106E19500D200A6E300E0A260AC0E5FF7D
:101BC00003C0E9FF04C0F3FF0550D9EC25F0032A58
:101BD00002E3044A052A116A062AC3D703C012F099
:101BE00004C013F005C014F0E56A12C0E9FF13C089
:101BF000F3FF1450D9EC25F00850E56E0750E56E60
:101C0000800EE56E020EE56E0C0EE56E0250E56E7E
:101C10000150E56E0050E56E15EC14F0006E080EF4
:101C2000E126185000260050E4CF20F0E4CF1FF04A
:101C3000E4CF1EF0E4CF1DF0E4CF1CF0E4CF1BF0A6
:101C4000E4CF1AF0E4CF19F0E4CF18F0E4CF17F0A6
:101C5000E4CF16F0E4CF15F0E4CF14F0E4CF13F0A6
:101C6000E4CF12F0E4CF11F0E4CF10F0E4CF0FF0A6
:101C7000E4CF0EF0E4CF0DF0E4CF0CF0E4CF0BF0A6
:101C8000E4CF0AF0E4CF09F0E4CF08F0E4CF07F0A6
:101C9000E4CF06F0E4CF05F0E4CF04F0E4CF03F0A6
:101CA000E4CF02F0E4CF01F0E4CF00F0E4CFD9FFBD
:101CB0001200D9CFE5FFE1CFD9FF00C0E5FF01C099
:101CC000E5FF02C0E5FF03C0E5FF04C0E5FF05C076
:101CD000E5FF06C0E5FF07C0E5FF08C0E5FF09C056
:101CE000E5FF0AC0E5FF0BC0E5FF0CC0E5FF0DC036
:101CF000E5FF0EC0E5FF0FC0E5FF10C0E5FF11C016
:101D0000E5FF12C0E5FF13C0E5FF14C0E5FF15C0F5
:101D1000E5FF16C0E5FF17C0E5FF18C0E5FF19C0D5
:101D2000E5FF1AC0E5FF1BC0E5FF020EDBCF00F0A8
:101D3000030EDBCF01F0040EDBCF02F0050EDBCF8C
:101D400003F0060EDBCF04F0070EDBCF05F0080E24
:101D5000DBCF06F0090EDBCF07F00A0EDBCF08F071
:101D60000B0EDBCF09F00C0EDBCF0AF00D0EDBCF34
:101D70000BF00F0EDBCF0CF00D6A0E6A03C00FF0F4
:101D800004C010F005C011F006C012F0035004109A
:101D9000051006101BE1300E0201006F016B0B50A5
:101DA000E56E0A50E56E800EE56E020EE56E000EE1
:101DB000E56E0250E56E0150E56E0050E56E15ECE3
:101DC00014F0136E080EE1261350ECD0095036E0E3
:101DD00008500A0A33E107501CE00350096E045012
:101DE000136E0550146E0650156ED88015AED8903F
:101DF00010E3010E0D6E151C126E141C116E131CD7
:101E0000106E091C0F6E0F2A04E1102A02E1114A1C
:101E1000122A075013E1D88004AED8900FE3010EC8
:101E20000D6E041E036CD8B4042A03C00FF004C066
:101E300010F0E86A04BEFF0E116E126E020E046E00
:101E40000B0E036E800E056EE56A03C0E9FF04C049
:101E5000F3FFD9EC25F003C006F004C007F005C07D
:101E600009F00F50101011101210D8B45AD008C039
:101E700013F0146A156A166AE56AE56AE56A135092
:101E8000E56E1250E56E1150E56E1050E56E0F5084
:101E9000E56E37EC17F0176EF3CF18F0F4CF19F0AA
:101EA000E9CF1AF0080EE126000E1A5C08E1000ED8
:101EB000195C05E1000E185C02E10A0E175C06E3EE
:101EC0000CC01BF0C60E1B261B501726FF0E062645
:101ED00007220922300E172617C0E5FF06C0E9FFCA
:101EE00007C0F3FF0950D9EC25F01650E56E1550E8
:101EF000E56E1450E56E1350E56E1250E56E11500C
:101F0000E56E1050E56E0F50E56E0AEC19F00F6E9D
:101F1000F3CF10F0F4CF11F0E9CF12F0080EE12664
:101F2000A0D706C003F007C004F009C005F00D50AB
:101F300021E00A5012E00BA210D02D0EE56E0250E7
:101F4000E56E0150E56E0050E56E37EC1CF0040EB6
:101F5000E126010E0E6E0A060DD0FF0E03260422A6
:101F600005222D0EE56E03C0E9FF04C0F3FF055006
:101F7000D9EC25F00B50E56E0A50E56E0550E56E84
:101F80000450E56E0350E56E0250E56E0150E56EBB
:101F90000050E56E15EC14F0006E080EE1260E50B0
:101FA00000260050E4CF1BF0E4CF1AF0E4CF19F084
:101FB000E4CF18F0E4CF17F0E4CF16F0E4CF15F03B
:101FC000E4CF14F0E4CF13F0E4CF12F0E4CF11F03B
:101FD000E4CF10F0E4CF0FF0E4CF0EF0E4CF0DF03B
:101FE000E4CF0CF0E4CF0BF0E4CF0AF0E4CF09F03B
:101FF000E4CF08F0E4CF07F0E4CF06F0E4CF05F03B
:10200000E4CF04F0E4CF03F0E4CF02F0E4CF01F03A
:10201000E4CF00F0E4CFD9FF120000C0E5FF01C01B
:10202000E5FF02C0E5FF03C0E5FF04C0E5FF05C012
:10203000E5FF02015A6B0BEC26F0006E0050D8B49D
:102040003ED1EDEC23F002015A51D8B438D1C1C4CD
:1020500000F0016A0401C1BF01680050430A02E1B7
:10206000015001E002D07EEC24F0C0C400F0016A0F
:102070000401C0BF01680050570A02E1015001E0AD
:102080006AD0C1C400F0016A0401C1BF01680050F8
:10209000440A02E1015001E009D00401C351E56E98
:1020A000C251E56E3FEC13F0E652E652C1C400F0B7
:1020B000016A0401C1BF01680050410A02E10150F8
:1020C00001E049D00401C3510A0DF450C3BF0A080E
:1020D000016EF3CF00F0C4C402F0036AC4BF03680A
:1020E00002500026035001220150E56E0050E56EBB
:1020F000E56A0A0EE56E1CEC21F0006EF3CF01F0EC
:10210000040EE126C5C404F0056A0401C5BF0568D4
:1021100004500026055001220150E56E0050E56E86
:10212000E56A0A0EE56E1CEC21F0006EF3CF01F0BB
:10213000040EE126025000240201476F03500120E3
:10214000486FE56E4751E56E0401C251E56EBAEC89
:1021500021F0030EE126C0C400F0016A0401C0BFF3
:1021600001680050520A02E1015001E0A8D0C1C448
:1021700000F0016A0401C1BF01680050440A02E195
:10218000015001E01DD0010EE56E0401C251E56E63
:10219000E7EC14F0E652E6520401C251E56E87EC1A
:1021A00016F0E6520201246F010EE56E800EE56E18
:1021B000020EE56E240EE56E72EC23F0040EE126AD
:1021C000C1C400F0016A0401C1BF01680050410AA6
:1021D00002E1015001E073D00401C251E56E6CECE4
:1021E00021F00201476FF3CF48F2E652030EE56E8D
:1021F000E80EE56E4851E56E4751E56EB3EC1CF014
:10220000006E040EE12600500201246F030EE56EFD
:10221000E80EE56E02014851E56E4751E56E2AEC85
:102220001DF0006EF3CF01F0040EE126E56A640EA6
:10223000E56E0150E56E0050E56EB3EC1CF0006EEB
:10224000040EE12600500201256FE56A640EE56E7A
:1022500002014851E56E4751E56E2AEC1DF0006E13
:10226000F3CF01F0040EE126E56A0A0EE56E015097
:10227000E56E0050E56EB3EC1CF0006E040EE12636
:1022800000500201266FE56A0A0EE56E0201485110
:10229000E56E4751E56E2AEC1DF0006E040EE12656
:1022A00000500201276F040EE56E800EE56E020EEF
:1022B000E56E240EE56E72EC23F0040EE126E4CF09
:1022C00005F0E4CF04F0E4CF03F0E4CF02F0E4CF74
:1022D00001F0E4CF00F0120000C0E5FF01C0E5FF0F
:1022E00002C0E5FF03C0E5FF04C0E5FF05C0E5FF50
:1022F000D350030B006E0050D8A491D0E56A300E85
:10230000E56E000EE56AE56A22EC1FF0006E040E31
:10231000E126180E0016016AD89001320032D890DA
:1023200001320032D89001320032DC0E0024016EFE
:10233000026A370E0222036A000E032201C0F6FF72
:1023400002C0F7FF03C0F8FF0900F5CF01F0E56A0E
:10235000300EE56EE56A010EE56E22EC1FF0026EAE
:10236000040EE1260F0E0216D80E0024036E046A36
:10237000370E0422056A000E052203C0F6FF04C0D2
:10238000F7FF05C0F8FF0900F5CF00F0D890023242
:10239000025006E00250020A03E00250060A1FE162
:1023A000E56AE56AE56A0150E56EE56A7A0EE56E72
:1023B000120EE56E000EE56AB8EC15F0016EF3CF73
:1023C00002F0F4CF03F0E9CF04F0080EE12604C0D8
:1023D000E9FF03C0F4FF02C0F3FF015063D0E56AD8
:1023E000E56AE56A0050E56E050EE56EB80EE56E2D
:1023F000D80EE56E000EE56A0AEC19F0006EF3CF18
:1024000001F0F4CF02F0E9CF03F0080EE12603C09B
:10241000E9FF02C0F4FF01C0F3FF005043D0D350E6
:10242000030B010A06E1E96AF46A800EF36EE86ABA
:1024300039D0D350030B800F7E0F30E3D350E838F0
:10244000070BE56AE56EE56A040EE56E1CEC21F00B
:10245000006EF3CF01F0040EE126026AE00E0026C2
:10246000370E0122000E022200C0F6FF01C0F7FF66
:1024700002C0F8FF0900F5CF00F00900F5CF01F028
:102480000900F5CF02F00900F5CF03F003C0E9FF22
:1024900002C0F4FF01C0F3FF005004D0E96AF46AFF
:1024A000F36AE86AE4CF05F0E4CF04F0E4CF03F088
:1024B000E4CF02F0E4CF01F0E4CF00F01200D9CF76
:1024C000E5FFE1CFD9FF00C0E5FF01C0E5FF02C095
:1024D000E5FF03C0E5FF04C0E5FF05C0E5FF06C05A
:1024E000E5FF07C0E5FF08C0E5FF020EDBCF00F007
:1024F000000E0201445D02E1400E435D05E243C26D
:1025000001F044C202F003D0400E016E026A0044A2
:10251000FE0B036E0328040DF450036EF3CF00F09E
:10252000000E0024046E040E0320056E000E00242D
:10253000066E040E0320076E06C0E9FF07C0EAFF1F
:10254000EFCF06F0FC0E061604C0E9FF05C0EAFF57
:1025500006C0EFFF000E0024046E040E0320056E7B
:10256000000E0024066E040E0320076E06C0E9FF6D
:1025700007C0EAFFEFCF06F0030E0214061204C0F4
:10258000E9FF05C0EAFF06C0EFFF000E0024046E5D
:10259000040E0320056E044A052A0150066E04C08D
:1025A000E9FF05C0EAFF06C0EFFF000E0026040E9B
:1025B0000322020E0026D8B0032A400E046E050E38
:1025C000056E00C0E9FF03C0EAFF04C0EEFF05C0CE
:1025D000EFFF01500201435F0250445B050E020110
:1025E0003E6F400E3D6F800E3F6F006A00C003F0EB
:1025F000046A0250045C02E10150035C2BE23DC21C
:1026000003F03EC204F03FC205F03AC206F03BC2FE
:1026100007F03CC208F006C0E9FF07C0F3FF08500E
:1026200054EC25F0066E02013A2B03E33B3F01D048
:102630003C2B06C0E5FF03C0E9FF04C0F3FF0550D3
:10264000D9EC25F002013D2B03E33E3F01D03F2BA7
:10265000002ACCD7E4CF08F0E4CF07F0E4CF06F0AF
:10266000E4CF05F0E4CF04F0E4CF03F0E4CF02F0D0
:10267000E4CF01F0E4CF00F0E4CFD9FF1200D9CFCE
:10268000E5FFE1CFD9FF00C0E5FF01C0E5FF02C0D3
:10269000E5FF03C0E5FF04C0E5FF020EDBCF00F05D
:1026A000030EDBCF01F00050E56EC6EC24F0E652DD
:1026B0001C0E0024026E036A380E0322046A000E08
:1026C000042202C0F6FF03C0F7FF04C0F8FF0900B0
:1026D000F5CF02F0030E025CD8B09AD0FA6AFB6A1A
:1026E0000234FA36E834FA36FC0BFA0FE56E260EA1
:1026F000FA22000EFB22E450F96E83EF13F0B0EFE4
:1027000013F0DDEF13F0015015E0080E0024026E07
:10271000036A380E0322046A000E042202C0F6FF88
:1027200003C0F7FF04C0F8FF0900F5CF02F0025024
:1027300089126ED0080E0024026E036A380E03223E
:10274000046A000E042202C0F6FF03C0F7FF04C0B3
:10275000F8FF0900F5CF02F00250FF08891658D0A3
:10276000015015E0080E0024026E036A380E0322A1
:10277000046A000E042202C0F6FF03C0F7FF04C083
:10278000F8FF0900F5CF02F002508A1241D0080E7E
:102790000024026E036A380E0322046A000E04222B
:1027A00002C0F6FF03C0F7FF04C0F8FF0900F5CF31
:1027B00002F00250FF088A162BD0015015E0080ED7
:1027C0000024016E026A380E0222036A000E032200
:1027D00001C0F6FF02C0F7FF03C0F8FF0900F5CF04
:1027E00001F001508B1214D0016A026A080E002613
:1027F000380E0122000E022200C0F6FF01C0F7FFD2
:1028000002C0F8FF0900F5CF00F00050FF088B165A
:10281000E4CF04F0E4CF03F0E4CF02F0E4CF01F022
:10282000E4CF00F0E4CFD9FF1200D9CFE5FFE1CF2C
:10283000D9FF00C0E5FF01C0E5FF02C0E5FF03C00E
:10284000E5FF04C0E5FF05C0E5FF06C0E5FF07C0E2
:10285000E5FF08C0E5FF09C0E5FF0AC0E5FF0BC0C2
:10286000E5FF0CC0E5FF0DC0E5FF0EC0E5FF020E61
:10287000DBCF00F0030EDBCF01F0040EDBCF02F064
:10288000050EDBCF03F0060EDBCF04F0070EDBCF27
:1028900005F0080EDBCF06F0090EDBCF07F0086A63
:1028A000200E096E065022E00A6A03C00BF004C035
:1028B0000CF005C00DF00BC0E9FF0CC0F3FF0D508C
:1028C00054EC25F00E6E0E5006E00A2A0B2AF3E3B4
:1028D0000C4A0D2AF0D706500A5C02E3066A02D0C1
:1028E0000A50065E07A202D0300E096E07B019D05A
:1028F000076A06C00AF00A5005E107C008F00AC0DE
:1029000006F00FD00950E56E0250E56E0150E56EFD
:102910000050E56E37EC1CF0040EE126072A0A068B
:10292000EAD708C007F003C0E9FF04C0F3FF055071
:1029300054EC25F0086E085012E00850E56E025085
:10294000E56E0150E56E0050E56E37EC1CF0040EAC
:10295000E126072A032AE7E3044A052AE4D707C049
:1029600003F006C004F004500FE00950E56E025079
:10297000E56E0150E56E0050E56E37EC1CF0040E7C
:10298000E126032A0406EFD7F36A0350E4CF0EF0E2
:10299000E4CF0DF0E4CF0CF0E4CF0BF0E4CF0AF07D
:1029A000E4CF09F0E4CF08F0E4CF07F0E4CF06F07D
:1029B000E4CF05F0E4CF04F0E4CF03F0E4CF02F07D
:1029C000E4CF01F0E4CF00F0E4CFD9FF1200D9CF7B
:1029D000E5FFE1CFD9FF00C0E5FF01C0E5FF02C080
:1029E000E5FF03C0E5FF04C0E5FF020EDBCF00F00A
:1029F000030EDBCF01F01C0E0024026E036A380EBA
:102A00000322046A000E042202C0F6FF03C0F7FF8F
:102A100004C0F8FF0900F5CF02F0030E025CD8B045
:102A20009AD0FA6AFB6A0234FA36E834FA36FC0BBA
:102A3000400FE56E2A0EFA22000EFB22E450F96EDA
:102A400026EF15F053EF15F080EF15F0015015E06B
:102A5000080E0024026E036A380E0322046A000E78
:102A6000042202C0F6FF03C0F7FF04C0F8FF09000C
:102A7000F5CF02F0025092126ED0080E0024026EC2
:102A8000036A380E0322046A000E042202C0F6FF15
:102A900003C0F7FF04C0F8FF0900F5CF02F00250B1
:102AA000FF08921658D0015015E0080E0024026E5F
:102AB000036A380E0322046A000E042202C0F6FFE5
:102AC00003C0F7FF04C0F8FF0900F5CF02F0025081
:102AD000931241D0080E0024026E036A380E0322BE
:102AE000046A000E042202C0F6FF03C0F7FF04C010
:102AF000F8FF0900F5CF02F00250FF0893162BD023
:102B0000015015E0080E0024016E026A380E022200
:102B1000036A000E032201C0F6FF02C0F7FF03C0E4
:102B2000F8FF0900F5CF01F00150941214D0016AAA
:102B3000026A080E0026380E0122000E022200C092
:102B4000F6FF01C0F7FF02C0F8FF0900F5CF00F063
:102B50000050FF089416E4CF04F0E4CF03F0E4CF74
:102B600002F0E4CF01F0E4CF00F0E4CFD9FF12008F
:102B7000D9CFE5FFE1CFD9FF00C0E5FF01C0E5FFF8
:102B800002C0E5FF03C0E5FF04C0E5FF05C0E5FFA7
:102B900006C0E5FF07C0E5FF08C0E5FF09C0E5FF87
:102BA0000AC0E5FF0BC0E5FF0CC0E5FF0DC0E5FF67
:102BB000020EDBCF00F0030EDBCF01F0040EDBCF03
:102BC00002F0050EDBCF03F0060EDBCF04F0070E9C
:102BD000DBCF05F0080EDBCF06F0090EDBCF07F0E8
:102BE000D88003AED890086A083608500FE0031C5E
:102BF0000C6E021C0B6E011C0A6E001C096E092A69
:102C00000DE10A2A0BE10B4A0C2A08D000C009F09A
:102C100001C00AF002C00BF003C00CF0D88007AE70
:102C2000D890006A003600500FE0071C0D6E061C9D
:102C3000036E051C026E041C016E012A0DE1022ABE
:102C40000BE1034A0D2A08D004C001F005C002F0D0
:102C500006C003F007C00DF00D50E56E0350E56EA1
:102C60000250E56E0150E56E0C50E56E0B50E56EBE
:102C70000A50E56E0950E56E0AEC19F0016EF3CFCB
:102C800002F0F4CF03F0E9CF04F0080EE126005083
:102C9000081A085016E0041C076E031C066E021C7E
:102CA000056E011C006E002A04E1052A02E1064AB5
:102CB000072A07C0E9FF06C0F4FF05C0F3FF005074
:102CC00007D004C0E9FF03C0F4FF02C0F3FF0150C6
:102CD000E4CF0DF0E4CF0CF0E4CF0BF0E4CF0AF03A
:102CE000E4CF09F0E4CF08F0E4CF07F0E4CF06F03A
:102CF000E4CF05F0E4CF04F0E4CF03F0E4CF02F03A
:102D0000E4CF01F0E4CF00F0E4CFD9FF1200D9CF37
:102D1000E5FFE1CFD9FF00C0E5FF01C0E5FF02C03C
:102D2000E5FF03C0E5FF020EDBCF00F00050E56ECB
:102D3000C6EC24F0E6521C0E0024016E026A380E26
:102D40000222036A000E032201C0F6FF02C0F7FF51
:102D500003C0F8FF0900F5CF01F0030E015CD8B005
:102D60007AD0FA6AFB6A0134FA36E834FA36FC0B98
:102D7000800FE56E2D0EFA22000EFB22E450F96E54
:102D8000C6EF16F0E8EF16F00AEF17F0080E002471
:102D9000016E026A380E0222036A000E032201C08D
:102DA000F6FF02C0F7FF03C0F8FF0900F5CF01F0FE
:102DB00080500116015003E1016A012A01D0016A25
:102DC0000150D880E866D890016A0136015044D09D
:102DD000080E0024016E026A380E0222036A000EF9
:102DE000032201C0F6FF02C0F7FF03C0F8FF09008D
:102DF000F5CF01F081500116015003E1016A012A6B
:102E000001D0016A0150D880E866D890016A013685
:102E1000015022D0016A026A080E0026380E0122F3
:102E2000000E022200C0F6FF01C0F7FF02C0F8FF4B
:102E30000900F5CF00F082500016005003E1006A4F
:102E4000002A01D0006A0050D880E866D890006A55
:102E50000036005001D0E86AE4CF03F0E4CF02F07E
:102E6000E4CF01F0E4CF00F0E4CFD9FF1200D9CFD6
:102E7000E5FFE1CFD9FF00C0E5FF01C0E5FF02C0DB
:102E8000E5FF03C0E5FF04C0E5FF05C0E5FF06C0A0
:102E9000E5FF07C0E5FF08C0E5FF09C0E5FF0AC080
:102EA000E5FF020EDBCF00F0030EDBCF01F0040ED6
:102EB000DBCF02F0050EDBCF03F0060EDBCF04F014
:102EC000070EDBCF05F0080EDBCF06F0090EDBCFD7
:102ED00007F0086A045005100610071005E1E968BC
:102EE000F468F368E86847D0096A0750800BE84443
:102EF0000A6E0A501BE104500426053606360736D2
:102F00000750035C08E10650025C05E10550015CD6
:102F100002E10450005C06E2D89007320632053226
:102F2000043204D0092A09C008F0DFD70750035C37
:102F300008E10650025C05E10550015C02E1045025
:102F4000005C08E30450005E0550015A0650025A26
:102F50000750035AD890073206320532043208C0AF
:102F600009F008060950E2E103C0E9FF02C0F4FFDE
:102F700001C0F3FF0050E4CF0AF0E4CF09F0E4CF42
:102F800008F0E4CF07F0E4CF06F0E4CF05F0E4CF9B
:102F900004F0E4CF03F0E4CF02F0E4CF01F0E4CF9B
:102FA00000F0E4CFD9FF1200D9CFE5FFE1CFD9FF80
:102FB00000C0E5FF01C0E5FF02C0E5FF03C0E5FF7B
:102FC00004C0E5FF05C0E5FF06C0E5FF07C0E5FF5B
:102FD00008C0E5FF09C0E5FF020EDBCF00F00044AA
:102FE000FE0B040DF450026EF3CF00F0000E00242F
:102FF000016E040E0220036E01C0E9FF03C0EAFF68
:10300000EFCF01F0030E01160150056E046A000EA9
:103010000026040E0222004A022A00C0E9FF02C074
:10302000EAFFEFCF00F0016A0450001205500112D0
:1030300000500201432701504423050E02013B6F5B
:10304000400E3A6F800E3C6F026A036A0150035CC7
:1030500002E10050025C2CE23DC204F03EC205F0E9
:103060003FC206F03AC207F03BC208F03CC209F08A
:1030700007C0E9FF08C0F3FF095054EC25F0076EC4
:1030800002013A2B03E33B3F01D03C2B07C0E5FF95
:1030900004C0E9FF05C0F3FF0650D9EC25F002019A
:1030A0003D2B03E33E3F01D03F2B024A032ACED7FC
:1030B000E4CF09F0E4CF08F0E4CF07F0E4CF06F066
:1030C000E4CF05F0E4CF04F0E4CF03F0E4CF02F066
:1030D000E4CF01F0E4CF00F0E4CFD9FF120000C04C
:1030E000E5FF01C0E5FF02C0E5FF03C0E5FF04C046
:1030F000E5FF05C0E5FF1F0E05010015006E02C5C6
:1031000001F0005012E10150010A01E076D0010EF9
:103110000201546F05010151030A04E1010E02018D
:10312000566F6BD00201566B68D00050020A01E066
:1031300064D00F0E05010415006E800E0415026E9A
:103140000150D8A45AD00050D8B457D0010E020173
:10315000546F040E036E000E016E800E046E00505C
:10316000080DF450056EF3CF00F000500124020169
:103170003D6F055003203E6FE86A05BEE8680420F5
:103180003F6F025005E0040E3D27000E3E233F2313
:1031900005010151030A10E13DC200F03EC201F0F9
:1031A0003FC203F0840EE56E00C0E9FF01C0F3FFEB
:1031B0000350D9EC25F021D00250010A0FE13DC2A5
:1031C00000F03EC201F03FC202F0E56A00C0E9FF34
:1031D00001C0F3FF0250D9EC25F00FD03DC200F042
:1031E0003EC201F03FC202F0880EE56E00C0E9FF6A
:1031F00001C0F3FF0250D9EC25F0E4CF05F0E4CF95
:1032000004F0E4CF03F0E4CF02F0E4CF01F0E4CF28
:1032100000F01200D9CFE5FFE1CFD9FF00C0E5FFF4
:1032200001C0E5FF02C0E5FF03C0E5FF04C0E5FF04
:1032300005C0E5FF06C0E5FF07C0E5FF08C0E5FFE4
:1032400009C0E5FF0AC0E5FF0BC0E5FF0CC0E5FFC4
:103250000DC0E5FF020EDBCF00F0030EDBCF01F067
:10326000040EDBCF02F0050EDBCF03F0060EDBCF42
:1032700004F0070EDBCF05F0080EDBCF06F0090ED9
:10328000DBCF07F0086A096A0A6A0B6A200E0C6E27
:103290000350800BE8440D6E0050002601360236C4
:1032A00003360850082609360A360B360D50D8A4C6
:1032B000088007500B5C08E106500A5C05E10550E8
:1032C000095C02E10450085C09E30450085E055003
:1032D000095A06500A5A07500B5A00800C040D6E0A
:1032E0000DC00CF00D50D4E103C0E9FF02C0F4FFA3
:1032F00001C0F3FF0050E4CF0DF0E4CF0CF0E4CFB9
:103300000BF0E4CF0AF0E4CF09F0E4CF08F0E4CF0B
:1033100007F0E4CF06F0E4CF05F0E4CF04F0E4CF0B
:1033200003F0E4CF02F0E4CF01F0E4CF00F0E4CF0B
:10333000D9FF1200D9CFE5FFE1CFD9FF00C0E5FFEB
:1033400001C0E5FF02C0E5FF03C0E5FF04C0E5FFE3
:1033500005C0E5FF06C0E5FF07C0E5FF08C0E5FFC3
:1033600009C0E5FF020EDBCF00F0030EDBCF01F05A
:10337000040EDBCF02F0036A02015751050A02E096
:10338000E86A4BD0040108BF47D0400E095DD8A0C1
:1033900009C4E8FF046A04010951045C20E20450F6
:1033A0000024056EE86A0120066EE86A0220076EB6
:1033B000800E0424086E096A050E092208C0E9FF80
:1033C00009C0EAFFEFCF08F008C0E5FF05C0E9FF3C
:1033D00006C0F3FF0750D9EC25F0042ADCD704C05F
:1033E00003F0400E04010815086F006A08BD002AAA
:1033F0000050D880E866D890006A00360050010B73
:10340000E840E840F46E0851BF0BF410086F400E1E
:10341000096F880E0811086F0350E4CF09F0E4CF5C
:1034200008F0E4CF07F0E4CF06F0E4CF05F0E4CFF6
:1034300004F0E4CF03F0E4CF02F0E4CF01F0E4CFF6
:1034400000F0E4CFD9FF120000C0E5FF01C0E5FFA6
:1034500002C0E5FF03C0E5FF04C0E5FF05C0E5FFCE
:103460001F0E05010015006E0501406B416B0050F9
:1034700013E1010E0201546F0201555104E0010EE7
:1034800005014011406F02015651D8B44CD0020ED4
:1034900005014011406F47D00050010A04E1010EC0
:1034A0000201546F40D00050020A01E03CD00F0EE0
:1034B00005010415006E800E0415016E010E020157
:1034C000546F040E036E000E026E800E046E0050E8
:1034D000080DF450056EF3CF00F0005002240201F5
:1034E0003D6F055003203E6FE86A05BEE868042082
:1034F0003F6F015005E0040E3D27000E3E233F23A1
:103500003DC200F03EC201F03FC202F000C0E9FF40
:1035100001C0F3FF025054EC25F0006E00A403D06C
:10352000010E0501406F020154510BE0050E02012E
:103530003B6F400E3A6F800E3C6F020E0201436FEC
:10354000446BE4CF05F0E4CF04F0E4CF03F0E4CF24
:1035500002F0E4CF01F0E4CF00F01200D9CFE5FF94
:10356000E1CFD9FF00C0E5FF01C0E5FF02C0E5FFE4
:1035700003C0E5FF04C0E5FF05C0E5FF06C0E5FFA9
:1035800007C0E5FF08C0E5FF09C0E5FF020EDBCF7D
:1035900000F0030EDBCF01F0040EDBCF02F0050ECE
:1035A000DBCF03F0046A02015751050A02E0E86A22
:1035B00047D004010CBF43D0410E035C02E3400E30
:1035C000036E056A0350055C1DE2C00E0524066EFD
:1035D000076A050E072205500024086EE86A0120DC
:1035E000096EE86A022008C0E9FF09C0F3FF54EC45
:1035F00025F0086E06C0E9FF07C0EAFF08C0EFFF2C
:10360000052AE0D705C004F0055004010D6F400EF7
:103610000C150C6F006A0CBD002A0050D880E866BB
:10362000D890006A00360050010BE840E840F46E84
:103630000C51BF0BF4100C6F880E0C110C6F045062
:10364000E4CF09F0E4CF08F0E4CF07F0E4CF06F0D0
:10365000E4CF05F0E4CF04F0E4CF03F0E4CF02F0D0
:10366000E4CF01F0E4CF00F0E4CFD9FF120000C0B6
:10367000E5FF01C0E5FF02C0E5FF03C0E5FF05016E
:103680000051800A01E06BD003C500F002C501F0D3
:103690000050010A0FE1010E0201546F000E0201F9
:1036A0003C6F370E3B6F700E3A6F120E0201436F84
:1036B000446B55D00050020A17E1010E0201546F0D
:1036C000000E02013C6F370E3B6F820E3A6F840E84
:1036D000F66E370EF76E000EF86E0900F5CF43F266
:1036E0000900F5CF44F23BD00050030A32E1010E4D
:1036F0000201546F0150030DF450026EF3CF01F03C
:10370000036ACE0E0126370E0222000E032201C0EC
:10371000F6FF02C0F7FF03C0F8FF0900F5CF3AF249
:103720000900F5CF3BF20900F5CF3CF23AC201F0B7
:103730003BC202F03CC203F001C0E9FF02C0F3FF4C
:10374000035054EC25F0016E01C043F20201446BBA
:1037500006D00050060A03E1010E0201546FE4CFC7
:1037600003F0E4CF02F0E4CF01F0E4CF00F0120068
:1037700012010002FF00FF40D804AAFE0000000171
:10378000000109022000010100C014090400000228
:10379000FFFFFF000705010240000007058102400E
:1037A00000000403090416034A00500020004D00E5
:1037B00041004E0044004F004E0020001203500014
:1037C00069006E006700750069006E006F00A23727
:1037D00000A63700BC370000020304060102030400
:1037E000127A000048E8010090D0030020A10700F1
:1037F00040420F0080841E0000093D0000127A0044
:10380000286E756C6C2900000102040810204080AD
:10381000408001020401020408201000010101019E
:10382000010101010202020202000000000000008A
:10383000E806E56E090E2BEC1CF0E4500BE000D01E
:10384000E56E090E2BEC1CF000D0E450000000D017
:10385000E82EF6D71200E8060000E85007E000D096
:1038600000D000D000D00000E82EFAD71200D9CF47
:10387000E5FFE1CFD9FF00C0E5FF01C0E5FF02C0D1
:10388000E5FF03C0E5FF04C0E5FF05C0E5FF06C096
:10389000E5FF020EDBCF00F0030EDBCF01F0040EDC
:1038A000DBCF02F0050EDBCF03F000500110021059
:1038B00033E000C0E9FF01C0F3FF025049EC24F0FF
:1038C000046EF3CF05F0F4CF06F003C0E5FF04C0AB
:1038D000E9FF05C0F3FF0650D9EC25F000C0E9FF71
:1038E00001C0F3FF025049EC24F0046EF3CF05F061
:1038F000F4CF06F0042A02E3054A062A04C0E5FFD5
:1039000005C0F4FF06C0F6FF00C0E9FF01C0F3FFE9
:103910000250A3EC25F016D00350E56EF2CFE5FF80
:10392000F29E0500420EFD6E390EFE6E000EFF6E19
:10393000E4BEF28E39C2FBFF38C2FAFF02013751F2
:10394000F96EE652E4CF06F0E4CF05F0E4CF04F0E0
:10395000E4CF03F0E4CF02F0E4CF01F0E4CF00F0D5
:10396000E4CFD9FF1200D9CFE5FFE1CFD9FF00C0E6
:10397000E5FF01C0E5FF02C0E5FF03C0E5FF04C0AD
:10398000E5FF05C0E5FF06C0E5FF07C0E5FF020E45
:10399000DBCF00F0030EDBCF01F0040EDBCF02F033
:1039A000050EDBCF03F0D88001AED890046A043650
:1039B000045007E0011C066E001C056E054A062A2D
:1039C00004D000C005F001C006F0D88003AED89046
:1039D000006A0036005007E0031C076E021C016EEF
:1039E000014A072A04D002C001F003C007F00750C3
:1039F000E56E0150E56E0650E56E0550E56E7AEC19
:103A00001FF0016EF3CF02F0040EE1260050041AFD
:103A100004500AE0021C036E011C006E004A032AD7
:103A200003C0F3FF005003D002C0F3FF0150E4CF06
:103A300007F0E4CF06F0E4CF05F0E4CF04F0E4CFE4
:103A400003F0E4CF02F0E4CF01F0E4CF00F0E4CFE4
:103A5000D9FF1200D9CFE5FFE1CFD9FF00C0E5FFC4
:103A600001C0E5FF02C0E5FF03C0E5FF04C0E5FFBC
:103A700005C0E5FF06C0E5FF020EDBCF00F0030E38
:103A8000DBCF01F0040EDBCF02F0050EDBCF03F03D
:103A9000D88001AED890046A0436045007E0011CB7
:103AA000066E001C056E054A062A04D000C005F00B
:103AB00001C006F0D88003AED89007E3031C016E66
:103AC000021C006E004A012A04D002C000F003C0AC
:103AD00001F00150E56E0050E56E0650E56E0550B0
:103AE000E56EC5EC1EF0006EF3CF01F0040EE1268A
:103AF00004500AE0011C036E001C026E024A032AF5
:103B000003C0F3FF025003D001C0F3FF0050E4CF25
:103B100006F0E4CF05F0E4CF04F0E4CF03F0E4CF07
:103B200002F0E4CF01F0E4CF00F0E4CFD9FF1200BF
:103B300000C0E5FF01C500F005010051600BD8A4ED
:103B400061D00050050A09E1010E0201546F040E14
:103B50000201576F02C54FF255D00050060A03E12B
:103B600037EC1BF04FD00050090A12E1010E0201A0
:103B7000546F02C558F20201585104E1040E0201CB
:103B8000576F40D0050E0201576F31EC25F03AD047
:103B90000050080A0FE1010E0201546F020E0201EB
:103BA0003B6F580E3A6F800E3C6F010E0201436F5F
:103BB000446B28D0005003E124EC1AF023D00050CD
:103BC000010A03E00050030A03E16FEC18F01AD079
:103BD00000500A0A11E1010E0201546F0501406B09
:103BE000050E02013B6F400E3A6F800E3C6F010ED6
:103BF0000201436F446B06D000500B0A03E1010E33
:103C00000201546FE4CF00F0120000C0E5FF040190
:103C10000451006E009E0050046F0051006E009E23
:103C20000050006F0201596B0201546B0201506B8E
:103C30000201436B446B98EC1DF0020154510BE1FF
:103C4000400E0401016F000E026F050E036F840E1B
:103C5000006F046F38D0050100AF26D00201445137
:103C60000501075D04E1020143510501065D04E21F
:103C700006C543F207C544F2000EE56A5FEC12F098
:103C8000E652020E0201596F400E0401016F000E50
:103C9000026F050E036F800E006F400E066F050E5B
:103CA000076FC80E046F0FD0010E0201596F040197
:103CB000056BC80E046F400E016F400E026F050EBB
:103CC000036FC80E006F6D98E4CF00F01200D9CFDB
:103CD000E5FFE1CFD9FF00C0E5FF01C0E5FF02C06D
:103CE000E5FF03C0E5FF04C0E5FF05C0E5FF020EE8
:103CF000DBCF00F0030EDBCF01F06CEC11F0026EB5
:103D0000F3CF03F0F4CF04F0E9CF05F0D8900532FB
:103D1000043203320232D8900532043203320232C6
:103D2000E56A010EE56E860EE56EA00EE56E0550A5
:103D3000E56E0450E56E0350E56E0250E56E0AEC48
:103D400019F0026E080EE12600C004F001C005F073
:103D5000FF0E002601220450051008E00250046EF8
:103D6000FD0E0426045018EC1CF0EED7E4CF05F04D
:103D7000E4CF04F0E4CF03F0E4CF02F0E4CF01F0AD
:103D8000E4CF00F0E4CFD9FF1200D9CFE5FFE1CFB7
:103D9000D9FF00C0E5FF01C0E5FF02C0E5FF03C099
:103DA000E5FF04C0E5FF05C0E5FF06C0E5FF020E24
:103DB000DBCF00F0030EDBCF01F0040EDBCF02F00F
:103DC000050EDBCF03F0046A056A0350800BE8445C
:103DD000066E065011E10250022603360350015CC4
:103DE00002E10250005C04E2D8900332023204D0B7
:103DF000052A05C004F0E9D70350015C02E1025036
:103E0000005C04E30250005E0350015AD890033274
:103E1000023204C005F004060550EEE101C0F3FFD4
:103E20000050E4CF06F0E4CF05F0E4CF04F0E4CF97
:103E300003F0E4CF02F0E4CF01F0E4CF00F0E4CFF0
:103E4000D9FF1200D9CFE5FFE1CFD9FF00C0E5FFD0
:103E500001C0E5FF02C0E5FF03C0E5FF04C0E5FFC8
:103E600005C0E5FF06C0E5FF07C0E5FF020EDBCF9A
:103E700000F0030EDBCF01F0040EDBCF02F0050EE5
:103E8000DBCF03F00250046E0350056E066A076A2A
:103E90000450F86E0150046E0250056E0350066E19
:103EA000076A0450F76E0050F66E0900F5CF00F077
:103EB0000900F5CF01F0026A0150046E036A056A39
:103EC000005003260550042204C0F3FF0350E4CF42
:103ED00007F0E4CF06F0E4CF05F0E4CF04F0E4CF40
:103EE00003F0E4CF02F0E4CF01F0E4CF00F0E4CF40
:103EF000D9FF1200D9CFE5FFE1CFD9FF00C0E5FF20
:103F000001C0E5FF02C0E5FF03C0E5FF04C0E5FF17
:103F100005C0E5FF06C0E5FF07C0E5FF020EDBCFE9
:103F200000F0030EDBCF01F0040EDBCF02F0050E34
:103F3000DBCF03F0046A056A100E066E0150800B99
:103F4000E844076E0050002601360450042605366A
:103F50000750D8A404800350055C02E10250045CC1
:103F600005E30250045E0350055A00800604076E04
:103F700007C006F00750E2E101C0F3FF0050E4CFB4
:103F800007F0E4CF06F0E4CF05F0E4CF04F0E4CF8F
:103F900003F0E4CF02F0E4CF01F0E4CF00F0E4CF8F
:103FA000D9FF120011EEFFF021EEFFF0F86AA68EA5
:103FB000A69CBF0EE96E0E0EEA6E0068ED6A005018
:103FC000FDE1F80EF66E4B0EF76E000EF86E09006E
:103FD000F5CF05F00900F5CF06F034D00900F5CF94
:103FE00000F00900F5CF01F00900F5CF02F009005B
:103FF0000900F5CFE9FF0900F5CFEAFF0900090044
:104000000900F5CF03F00900F5CF04F0090009001D
:10401000F6CF07F0F7CF08F0F8CF09F000C0F6FFB1
:1040200001C0F7FF02C0F8FF03D00900F5CFEEFF93
:104030000306FBE20406F9E207C0F6FF08C0F7FF3B
:1040400009C0F8FF0506CAE20606C8E22EEC24F015
:10405000FFD7D9CFE5FFE1CFD9FF00C0E5FF01C011
:10406000E5FF02C0E5FF03C0E5FF04C0E5FF05C0B2
:10407000E5FF020EDBCF40F2030EDBCF41F2040E70
:10408000DBCF42F2050EDBCF00F0060EDBCF01F0F6
:10409000070EDBCF02F0080EDBCF03F0090EDBCFFB
:1040A00004F00A0EDBCF05F00550E56E0450E56E16
:1040B0000350E56E0250E56E0150E56E0050E56E6E
:1040C000800EE56E020EE56E400EE56E0EEC06F01B
:1040D000006E090EE1260050E4CF05F0E4CF04F0B5
:1040E000E4CF03F0E4CF02F0E4CF01F0E4CF00F03E
:1040F000E4CFD9FF120000C0E5FF6CB422D03C0E23
:1041000004010015006E0040E8403F0B0D0A03E17A
:1041100005EC1EF03ED002015951010A0FE1000EDC
:10412000E56AD4EC17F0E652040100AD03D0880E26
:10413000006F2FD0C80E0401006F2BD0C0EC25F00B
:1041400028D0006A6CB4002A0050010A22E16E50A7
:104150000BE102015751040A07E102C56EFF6E50E0
:1041600003E1030E0201576F02015951020A0FE1E8
:10417000000EE56A5FEC12F0E652040104AD03D0D4
:10418000880E046F06D0C80E0401046F02D0C0EC84
:1041900025F0E4CF00F01200D9CFE5FFE1CFD9FF41
:1041A00000C0E5FF01C0E5FF02C0E5FF03C0E5FF79
:1041B00004C0E5FF05C0E5FF020EDBCF37F2030EBA
:1041C000DBCF38F2040EDBCF39F2050EDBCF00F087
:1041D000060EDBCF01F0070EDBCF02F0080EDBCFBF
:1041E00003F0090EDBCF04F00A0EDBCF05F005501B
:1041F000E56E0450E56E0350E56E0250E56E015029
:10420000E56E0050E56E000EE56AE56AE56A0EECC3
:1042100006F0006E090EE1260050E4CF05F0E4CF71
:1042200004F0E4CF03F0E4CF02F0E4CF01F0E4CFF8
:1042300000F0E4CFD9FF1200D9CFE5FFE1CFD9FFDD
:1042400000C0E5FF01C0E5FF02C0E5FF03C0E5FFD8
:10425000020EDBCF00F0030EDBCF01F0040EDBCF4C
:1042600002F0050EDBCF03F000500201496F015050
:104270004A6F025002014B6F03504C6F02014951CB
:1042800002014B03F4CF01F0F3CF00F00050020124
:104290004D6F01504E6F0201495102014C03F3CFA3
:1042A00000F002014A5102014B03F3CF01F001502B
:1042B000002602014E51002600504E6F4EC2F3FF01
:1042C0004D51E4CF03F0E4CF02F0E4CF01F0E4CFAE
:1042D00000F0E4CFD9FF1200D9CFE5FFE1CFD9FF3D
:1042E00000C0E5FF01C0E5FF02C0E5FF03C0E5FF38
:1042F000020EDBCF00F00D0E005C0BE3150E005C30
:1043000008E2F30E0024016E0144E844FC0BC26E87
:1043100007D0060E005C04E20044E844FC0BC26EC9
:10432000C280090E006E016A0000FF0E0026012205
:1043300000500110F9E1C282C2B2FED7C4CF00F032
:10434000016A0050036E026AC3CF00F0016A005098
:10435000022601500322C29003C0F3FF0250E4CFB3
:1043600003F0E4CF02F0E4CF01F0E4CF00F0E4CFBB
:10437000D9FF1200D9CFE5FFE1CFD9FF00C0E5FF9B
:1043800001C0E5FF02C0E5FF03C0E5FF020EDBCF81
:1043900000F0030EDBCF01F0040EDBCF02F0005083
:1043A0000B0A17E000500C0A25E10C0EBD6ED890E8
:1043B0000230036E0130006ED8900332003200509C
:1043C000BE6E0150006E030E00160038F00BBD12D9
:1043D00011D00C0EBA6ED8900230036E0130006E10
:1043E000D890033200320050BB6E030E0116013824
:1043F000F00BBA129E92E4CF03F0E4CF02F0E4CFC8
:1044000001F0E4CF00F0E4CFD9FF1200D9CFE5FFEF
:10441000E1CFD9FF00C0E5FF01C0E5FF02C0E5FF25
:1044200003C0E5FF04C0E5FF050ED924006E000EB1
:10443000DA20016E800E026E030E0026000E0122AD
:104440000222020ED924036E000EDA20046E0250FE
:10445000E56E0150E56E0050E56E070EDBCFE5FF1F
:10446000060EDBCFE5FF050EDBCFE5FF800EE56E28
:104470000450E56E0350E56E0EEC06F0006E090E7A
:10448000E1260050E4CF04F0E4CF03F0E4CF02F0E3
:10449000E4CF01F0E4CF00F0E4CFD9FF1200D9CF90
:1044A000E5FFE1CFD9FF00C0E5FF01C0E5FF02C095
:1044B000E5FF020ED924006E000EDA20016E800E98
:1044C000026E030E0026000E012202220250E56E4B
:1044D0000150E56E0050E56E040EDBCFE5FF030EE4
:1044E000DBCFE5FF020EDBCFE5FF800EE56E040EAD
:1044F000E56E800EE56E29EC20F0006E090EE126D7
:104500000050E56E800EE56E040EE56E800EE56EE1
:10451000AEEC1AF0040EE126E4CF02F0E4CF01F095
:10452000E4CF00F0E4CFD9FF1200D8CFE5FFE0CF11
:10453000E5FFE56EF3CFE5FFF4CFE5FFE9CFE5FF5B
:10454000EACFE5FFFACFE5FFFBCFE5FFD9CFE5FFE7
:10455000E1CFD9FFF6CFE5FFF7CFE5FFF8CFE5FFD5
:10456000F5CFE5FFE4EC25F0E4CFF5FFE4CFF8FF6D
:10457000E4CFF7FFE4CFF6FFE4CFD9FFE4CFFBFFB2
:10458000E4CFFAFFE4CFEAFFE4CFE9FFE4CFF4FFA2
:10459000E4CFF3FFE450E4CFE0FFE4CFD8FF100016
:1045A000D8CFE5FFE0CFE5FFE56EF3CFE5FFF4CF31
:1045B000E5FFE9CFE5FFEACFE5FFFACFE5FFFBCF67
:1045C000E5FFD9CFE5FFE1CFD9FFF6CFE5FFF7CF84
:1045D000E5FFF8CFE5FFF5CFE5FFE4CFF5FFE4CF4A
:1045E000F8FFE4CFF7FFE4CFF6FFE4CFD9FFE4CF45
:1045F000FBFFE4CFFAFFE4CFEAFFE4CFE9FFE4CF2B
:10460000F4FFE4CFF3FFE450E4CFE0FFE4CFD8FFC2
:10461000100000C0E5FF020157512EE068A403D04E
:1046200069B407EC26F0006A6DB2002A0050010A56
:1046300023E068A003D069B0CBEC23F068A803D0D6
:1046400069B843EC25F068AC03D069BC0EEC26F0E9
:1046500068AA03D069BA94EC25F068A202D069B2C6
:104660006892030E0201575D07E368A605D069A6AC
:1046700003D07BEC20F06896E4CF00F01200F29EAD
:10468000F29C6D6A6F6A706A716A726A736A746AA0
:10469000756A766A776A786A796A7A6A7B6A7C6A06
:1046A0007D6A7E6A7F6A070EE56ED00EE56E67EC66
:1046B0001EF0E652E652140E6F6E0201576B0201B5
:1046C000566B0201586B02015751050A05E0DDECFB
:1046D00024F009EC23F0F7D7A19AA08AA28AF28EDF
:1046E000F28C1200D9CFE5FFE1CFD9FF00C0E5FF82
:1046F00001C0E5FF02C0E5FF03C0E5FF020EDBCF0E
:1047000000F0030EDBCF01F0040EDBCF02F0050E4C
:10471000DBCF03F00350E56E0250E56E0150E56E0D
:104720000050E56EAEEC1AF0006E040EE12600506B
:10473000E4CF03F0E4CF02F0E4CF01F0E4CF00F0E7
:10474000E4CFD9FF1200D9CFE5FFE1CFD9FF00C0F8
:10475000E5FF01C0E5FF02C0E5FF020EDBCF00F080
:10476000030EDBCF01F0040EDBCF02F00250E56E4A
:104770000150E56E0050E56E9AEC19F0006E030EE4
:10478000E1260050E4CF02F0E4CF01F0E4CF00F0E6
:10479000E4CFD9FF120000C0E5FF6A6A686A9F0E85
:1047A0006B6E7B0E696E6E6A160E706E006A68B66E
:1047B000002A0050010A02E16896F8D76D98C0EC13
:1047C00025F00201566B0201556B0201586B030E76
:1047D0000201576FE4CF00F0120000C0E5FF01C0F6
:1047E000E5FF800EE56E040EE56EC00EE56EA3ECEF
:1047F00023F002015A6F030EE126C00E5A25006E07
:10480000016A040E012200C0E9FF01C0EAFF000EA8
:10481000EF6AE4CF01F0E4CF00F01200E8AE0AD076
:10482000F3CFEAFFEE50EECFF3FFEECFF4FFEECF83
:10483000E9FF1200E8BC16EF26F0E9CFF6FFF3CF50
:10484000F7FFF86E0900F5500900F5CFF3FF0900F6
:10485000F5CFF4FF0900F5CFE9FF1200D0B202D086
:10486000930ED012D350030B800F7E0F02E3D3A41C
:10487000FED7B2EC25F006EC06F03FEC23F0F5ECA9
:1048800025F003EC26F064EC24F00DEC10F0FDD7DD
:104890001200E8AE08D0F3CFEAFFEE50EECFF3FF00
:1048A000EECFF4FF1200E8BC14EF26F0E9CFF6FFDC
:1048B000F3CFF7FFF86E0900F5500900F5CFF3FFCD
:1048C0000900F5CFF4FF12000201346B356B0201D1
:1048D0003451E56AE56EE7EC14F0E652E652020167
:1048E000343F01D0352B02013551800F800F02E19A
:1048F000080E345DECE37EEC24F012000201346B10
:10490000356B02013451E56AE56E3FEC13F0E65277
:10491000E6520201343F01D0352B02013551800FA0
:10492000800F02E1080E345DECE31200F2CFF6FFD7
:10493000F29EA69EA69CE9CFA9FFA680A850A92A10
:10494000A680A8CFF3FFA92AA680A8CFF4FFA92AA2
:10495000A680A8CFEAFFF6BEF28E1200F2CFEAFFE1
:10496000F29EA69EA69CA684E9CFA9FFE4CFA8FF4D
:10497000EDEC25F0F4CFA8FFEDEC25F0F6CFA8FF85
:10498000EDEC25F0A694EABEF28E1200D9CFE5FF39
:10499000E1CFD9FF00C0E5FF020EDBCF00F00050F1
:1049A0000B0A05E000500C0A03E1BD6A01D0BA6AA7
:1049B000E4CF00F0E4CFD9FF12006DB606D06D6AE7
:1049C000696A6D86010E0201576F02015751010A93
:1049D00009E16DBA07D0686A696A69806988020E60
:1049E0000201576F1200E8AE06D0F3CFEAFFEE5097
:1049F000EECFF3FF1200E8BC12EF26F0E9CFF6FF8E
:104A0000F3CFF7FFF86E0900F5500900F5CFF3FF7B
:104A10001200D9CFE5FFE1CFD9FF00C0E5FF020EBC
:104A2000DBCF00F0005004E00050010A01E1C18832
:104A3000E4CF00F0E4CFD9FF1200F2CFF6FFF29EF0
:104A4000A69EA69CE9CFA9FFA680A850A92AA68069
:104A5000A8CFF3FFA92AA680A8CFF4FFF6BEF28E56
:104A600012001E0E716E400E0401096F800E0A6F57
:104A7000050E0B6F880E086FC00E0E6F050E0F6FC0
:104A8000400E0C6F1200D9CFE5FFE1CFD9FF69844A
:104A900068986D82A19AF290A08AF2860300A09A8B
:104AA000F296E4CFD9FF1200E8AE04D0F3CFEAFFCC
:104AB000EE501200E8BC10EF26F0E9CFF6FFF3CF7E
:104AC000F7FFF86E0900F5501200F2CFF6FFF29EE4
:104AD000A69EA69CE9CFA9FFA680A850A92AA680D9
:104AE000A8CFF3FFF6BEF28E1200F2CFEAFFF29EDD
:104AF000A69EA69CA684E9CFA9FFE4CFA8FFEDEC73
:104B000025F0A694EABEF28E120000C0E5FF040173
:104B100008BF02D0095102E1006A02D0010E006E06
:104B20000050E4CF00F0120000C0E5FF006A70B052
:104B3000002A0050010A03E1C0EC25F07090689A49
:104B4000E4CF00F01200E8AE09D0F3CFEAFFE4CFE3
:104B5000EEFFF4CFEEFFF6CFEEFF1200E8BC1AEF47
:104B600026F01200896A8A6A8B6A926A936A949024
:104B700094929494949C949E806A816A826A1200B2
:104B80000201596B400E0401016F000E026F050E09
:104B9000036F880E006F046B1200F2CFF6FFF29ED7
:104BA000A69EA69CE9CFA9FFA680A850F6BEF28ECD
:104BB0001200E8AE05D0F3CFEAFFE4CFEEFF12001B
:104BC000E8BC18EF26F01200A1AA06D0A19A09ECC1
:104BD00023F0689C68906A6A1200550EA76EAA0EB0
:104BE000A76EA682A6B2FED7A94A2F0E92120A0E6F
:104BF000C16EBD0EC06E12000100040C0000340234
:104C0000000003000000CB68040ECA6E12006D9213
:104C100069946894120085EC25F01200689C1200DB
:104C2000CDEF25F065EF25F01DEF25F096EF24F090
:084C300075EF25F0AEEF24F052
:00000001FF
